:020000040800F2
:100000001009002005010008AB0E0008E9010008F6
:10001000A90E0008C1010008C1100008000000007E
:10002000000000000000000000000000FB0F0008BE
:10003000E701000800000000430F0008FD0F000862
:100040001F0100081F0100081F0100081F01000810
:100050001F0100081F0100081F0100081F01000800
:100060001F0100081F0100081F0100081F010008F0
:10007000C3010008C5010008C7010008C901000844
:10008000CD010008E50100081F0100081F0100085C
:100090001F0100081F0100081F0100081F010008C0
:1000A0001F0100081F0100081F0100081F010008B0
:1000B0001F0100081F0100081F010008ED010008D2
:1000C000EB010008F1010008EF010008F90F00083A
:1000D0001F0100089F100008A11000081F01000860
:1000E0001F0100081F0100081F010008DFF810D0E1
:1000F00000F054F800480047A5130008AFF3008053
:10010000100900200648804706480047FEE7FEE742
:10011000FEE7FEE7FEE7FEE7FEE7FEE7FEE7FEE7B7
:100120009D100008ED00000840EA01039B0703D082
:1001300009E008C9121F08C0042AFAD203E011F826
:10014000013B00F8013B521EF9D27047D2B201E0E8
:1001500000F8012B491EFBD270470022F6E710B5CC
:1001600013460A4604461946FFF7F0FF204610BD25
:1001700030B50B46014600202022012409E021FA77
:1001800002F59D4205D303FA02F5491B04FA02F574
:100190002844151EA2F10102F1DC30BD064C074DCA
:1001A00006E0E06840F0010394E807009847103447
:1001B000AC42F6D3FFF79EFF84170008A41700088F
:1001C000FEE77047704770477047000004480168B9
:1001D000C1F34051002901D0010141607047000086
:1001E0000000024070477047FEE770477047704755
:1001F00070470000044908B5CA690243CA61C96969
:100200000140009108BD000000100240044908B5FB
:100210008A6902438A6189690140009108BD000032
:1002200000100240044908B58A6902438A6189695D
:100230000140009108BD000000100240044908B5CB
:100240008A6902438A6189690140009108BD000002
:1002500000100240044908B58A6902438A6189692D
:100260000140009108BD000000100240044A114402
:1002700011F8011C425842F0010242507047000040
:1002800062170008044B194411F8011C435823F469
:10029000405313434350704754170008044B19440C
:1002A00011F8011C435823F4405313434350704743
:1002B0005B170008044B194411F8011C435823F440
:1002C000405313434350704762170008054B001D0D
:1002D000194411F8011C0B586FF30F0313430B5013
:1002E0007047000062170008054B10B5194411F85B
:1002F000011C435844F21004A3431343435010BD60
:1003000054170008054B10B5194411F8011C435847
:1003100044F21004A3431343435010BD5B1700087D
:10032000054B10B5194411F8011C435844F2100450
:10033000A3431343435010BD62170008044B1944F4
:1003400011F8011C435823F08003134343507047B6
:1003500054170008044B194411F8011C435823F0AA
:1003600080031343435070475B170008044B194444
:1003700011F8011C435823F0800313434350704786
:1003800062170008044B194411F8011C435823F468
:10039000406313434350704754170008044B1944FB
:1003A00011F8011C435823F4406313434350704732
:1003B0005B170008044B194411F8011C435823F43F
:1003C000406313434350704762170008044B1944BD
:1003D00011F8011C435823F0200313434350704786
:1003E00054170008044B194411F8011C435823F01A
:1003F00020031343435070475B170008044B194414
:1004000011F8011C435823F0200313434350704755
:1004100062170008044B194411F8011C435823F0DB
:10042000400313434350704754170008044B1944CA
:1004300011F8011C435823F0400313434350704705
:100440005B170008044B194411F8011C435823F0B2
:10045000400313434350704762170008044B19448C
:1004600011F8011C435823F4407313434350704761
:1004700054170008044B194411F8011C435823F485
:1004800040731343435070475B170008044B1944F3
:1004900011F8011C435823F4407313434350704731
:1004A00062170008F0B50A68C2F30F2595FAA5F2A5
:1004B000B2FA82F369E001229A402A4264D0082B02
:1004C00003D240F201129A4006E0A3F108024FF075
:1004D0000114944044F080624C68082C0BD10C69E4
:1004E000C668170A97FAA7F7B7FA87F726EA122617
:1004F000BC402643C66092FAA2F700EB1264B7FA3A
:1005000087F74FEA870C0F27266807FA0CF7BE43D8
:1005100092FAA2F7D1F804E0B7FA87F7BF000EFA13
:1005200007FE46EA0E0626604F68012F01D0092F0C
:100530002AD192FAA2F7B7FA87F74FEA870C032776
:1005400007FA0CF7BE4392FAA2F7B7FA87F7D1F889
:1005500008E0BF000EFA07FE92FAA2FC46EA0E0679
:10056000BCFA8CFC4FEA8C0E4FF0040C26600CFA9F
:100570000EFC92FAA2F2B2FA82F2CF68920026EA58
:100580000C0697403E4326605B1C35FA03F292D17D
:100590000020F0BD30B5214C4568B1FBF4F425F0E6
:1005A0003F05254345601E4DAA4207D94FF4967575
:1005B00004FB05F44FF47A75B4FBF5F4056A04F115
:1005C000010425F03F0544EA0504046213D96BB128
:1005D00002EBC20404EB0212B1FBF2F4240508D0D2
:1005E000B1FBF2F1194341F400410FE002EB42028A
:1005F000F2E70121F6E75200B1FBF2F3C3F30B037C
:10060000042B01D2042101E0B1FBF2F1C2694CF6E6
:10061000FF739A430A43C26130BD000040420F009D
:10062000A08601007FB5044600680D4620F0010059
:100630002060684600F02FF8D5E901232046029992
:10064000FFF7A8FF6969E868A26848F2FF339A4398
:1006500008430243A2602868216821F01A0101437F
:100660002160206840F0010020602869216821F4A1
:1006700080610143216004B0002070BD4FF47A71A5
:10068000B0FBF1F14FF0E020491E41610021816192
:1006900005210161704700B5034600F07DFC18603C
:1006A00000F050FC586000F05BFC9860586800F067
:1006B00065FCD86000BD10B503680122C3F3801348
:1006C0002BBBD1E900231A43D1E9023423431A4357
:1006D0000B691A434B691A438B691A43CB691A4356
:1006E0000B6A1A4303684FF6BF74A3431A430260B0
:1006F00042684B6922F0040242EA134242600A6AED
:10070000B2F5005F02D1898C89B2016100221046E6
:1007100010BD00000149086070470000040000207F
:100720002DE9FF410446C0680D460126C0F3403064
:10073000F0BBE9686868E2680843296941F20C6324
:100740009A4311430843E060A868216921F44051AD
:10075000014321616869616921F44071014361616C
:100760006846FFF798FF2448844201D1039806E0C9
:100770002248844202D02248844238D10298B8B13B
:100780002A68AAB100EBC00101EB00119200B1FB95
:10079000F2F36420B3FBF0F3B1FBF2F56FF018074E
:1007A0007B43002605EB8305322303EB051500E0B0
:1007B0001DE0B1FBF2F7B5FBF0F5B7FBF0F705F084
:1007C000F00505EB0715B1FBF2F7B1FBF2F1B1FB58
:1007D000F0F16FF01802514307EB810103EB0111B7
:1007E000B1FBF0F000F00F00284480B2A06004B02C
:1007F0003046BDE8F0810000003801400044004070
:100800000048004008B54FF0E0210A690092421C00
:1008100000D0401C0A69D20300D5401E0028F9D13F
:1008200008BD00002C4808B5416941F00101416153
:10083000406900F00100009000F07CFC00221146AD
:1008400000F034FB01460C2000F084FC0C2000F08A
:1008500049FC00F06FFC0022114600F027FB014626
:100860000D2000F077FC0D2000F03CFC00F062FC55
:1008700000220E2100F01AFB01460E2000F06AFC57
:100880000E2000F02FFC00F055FC00220D2100F09E
:100890000DFB01460F2000F05DFC0F2000F022FC54
:1008A00000F048FC00220C2100F000FB0146102063
:1008B00000F050FC102000F015FC00F03BFC002282
:1008C0000B2100F0F3FA0146112000F043FCBDE8D3
:1008D0000840112000F006BC0010024000B585B0B1
:1008E00014216846FFF739FC1020FFF78FFC202009
:1008F000FFF78CFC0420FFF789FC0820FFF786FC3B
:10090000094808494FF40052026100910121019108
:1009100003210291042103916946FFF7C3FD05B04D
:1009200000BD0000200020040010014010B58CB074
:1009300018216846FFF711FC142106A8FFF70DFCEB
:100940000820FFF76FFC4CF2C000069009200790CA
:10095000032008900420099006A92148FFF7A2FD72
:100960004FF40010FFF746FC00F0ECFB00220621DC
:1009700000F0B5FA01461F2000F0FCFB1F2000F03C
:10098000BEFB00F0DFFB0022062100F0A8FA0146C2
:10099000202000F0EFFB202000F0B1FB114CE068BC
:1009A00020F00100E060206820F040002060206816
:1009B00020F08000206000200B490290CDE900016A
:1009C0000390201504900001059069462046FFF72A
:1009D00029FEE06820F0FE00E0600CB010BD0000D1
:1009E000000C014000540040801A060010B58CB085
:1009F00018216846FFF7B1FB142106A8FFF7ADFBED
:100A00000820FFF70FFC49480690092007900320B3
:100A100008900420099006A94548FFF743FD4FF4CC
:100A20008000FFF7E7FB434C002205212046FFF73B
:100A30005BFC002205212046FFF724FC0022052153
:100A40002046FFF7C3FC002205212046FFF7E2FC09
:100A5000802205212046FFF771FC00220521204657
:100A6000FFF7FCFC002205212046FFF78BFC10223B
:100A700004212046FFF738FC002204212046FFF71E
:100A800001FC002204212046FFF7A0FC00220421E3
:100A90002046FFF7BFFC802204212046FFF74EFCD2
:100AA000002204212046FFF7D9FC00220421204621
:100AB000FFF768FC00F046FB00220A2100F00FFA65
:100AC0000146212000F056FB212000F018FB00F029
:100AD00039FB00220A2100F002FA0146222000F030
:100AE00049FB222000F00BFB134CE06820F00100D2
:100AF000E060206820F040002060206820F0800046
:100B0000206000200D490290CDE9000103902015DE
:100B100004900001059069462046FFF783FDE068D8
:100B200020F0FE00E0600CB010BD00000C000C04D2
:100B3000000C01400000024000580040801A0600EE
:100B400030B58FB028216846FFF707FB14210AA8AB
:100B5000FFF703FB4FF48050FFF770FB0420FFF713
:100B60006DFB45F250000A900420464D0B900AA9F7
:100B70002846FFF797FC4AF2A0000A9009200B9044
:100B800003200024CDE90C040AA92846FFF78AFCBB
:100B90003D4D002202212846FFF7B4FB002202212E
:100BA0002846FFF77BFB002202212846FFF71AFCAC
:100BB000002202212846FFF739FC80220221284624
:100BC000FFF7C8FB002202212846FFF753FC002252
:100BD00002212846FFF7E2FB102203212846FFF7F7
:100BE00091FB002203212846FFF758FB0022032136
:100BF0002846FFF7F7FB002203212846FFF716FCE3
:100C0000802203212846FFF7A5FB00220321284666
:100C1000FFF730FC002203212846FFF7BFFB1B48EB
:100C20000068C0F30220C0F10701042900D90421A3
:100C3000021D072A01D2002000E0C01E01228A40C6
:100C4000521E02F0090181400801114981F8000497
:100C50000F4908201F39C1F800014FF48270CDE917
:100C600000400294039420200494CDE905400A201A
:100C7000CDE90840694607940648FFF71CFD0FB010
:100C800030BD000000080140000002400CED00E013
:100C900023E000E00030014030B58DB01C216846F3
:100CA000FFF75BFA142107A8FFF757FA4FF48040CB
:100CB000FFF7D0FA0420FFF7CDFA2048079009206B
:100CC000089003200024CDE909041D4D07A92846FA
:100CD000FFF7E8FB1B4807900420089007A9284667
:100CE000FFF7E0FB184800680022C0F3022007214C
:100CF00000F00EF90146252000F04CFA252000F006
:100D00000BFA4FF4E130CDE900040C200294CDE958
:100D10000340059406940D4C69462046FFF700FDFC
:100D2000206920F490402061606920F02A00606111
:100D3000E06840F40050E0600DB030BD02000204F5
:100D400000080140040004040CED00E000380140FC
:100D500030B58DB01C216846FFF7FFF9142107A8B4
:100D6000FFF7FBF94B48C16941F40031C161C0692B
:100D700000F400300C900420FFF76CFA40F20440BD
:100D800007900920089003200024CDE90904424D72
:100D900007A92846FFF786FB40F6080007900420C5
:100DA000089007A92846FFF77DFB3C4D002206214D
:100DB0002846FFF7B5FA002206212846FFF77AFAFF
:100DC000002206212846FFF719FB002206212846AB
:100DD000FFF738FB802206212846FFF7C7FA0022DA
:100DE00006212846FFF752FB002206212846FFF77E
:100DF000E1FA102207212846FFF792FA0022072184
:100E00002846FFF757FA002207212846FFF7F6FA8F
:100E1000002207212846FFF715FB802207212846DC
:100E2000FFF7A4FA002207212846FFF72FFB002234
:100E300007212846FFF7BEFA194800680022C0F3D0
:100E40000220082100F064F80146262000F0A2F9F3
:100E5000262000F061F94FF4E130CDE900040C20C8
:100E60000294CDE90340059406940E4C6946204651
:100E7000FFF756FC206920F490402061606920F063
:100E80002A006061E06840F40050E06000F0ACFBD4
:100E90000DB030BD001002400008014000000240CB
:100EA0000CED00E000440040FEE7FEE730B500F046
:100EB0000703C3F10704042C00D90424181D0728D4
:100EC00001D2002300E0DB1E012505FA04F0401EDC
:100ED000084098409D406D1E1540284330BD30B5F8
:100EE00000F00703C3F10704042C00D90424181DE3
:100EF000072801D2002300E0DB1E012505FA04F0DB
:100F0000401E084098409D406D1E1540284330BD4E
:100F100030B500F00703C3F10704042C00D9042402
:100F2000181D072801D2002300E0DB1E012505FA69
:100F300004F0401E084098409D406D1E1540284317
:100F400030BD704704494968044A01F0F0010909BD
:100F5000515CC8407047000000100240691700084B
:100F600004494968044A01F4E06102EB112109785F
:100F7000C8407047001002407917000804494968CA
:100F8000044A01F4605102EBD1210978C84070474E
:100F900000100240791700080648406810F00C0164
:100FA000054805D0042903D0082901D100F006B86E
:100FB000704700000010024000127A000B484168A0
:100FC00011F480320A4909D0B2F5803F06D1416858
:100FD000084AC1F34041491CB2FBF1F140680222CA
:100FE00000F4701002EB904048437047001002403C
:100FF00000093D0000127A007047704770470000FA
:10100000234810B5016821F0070141F00201016099
:10101000016801F007010229FAD11E48016841F474
:10102000803101600168C1F340410029FAD0416874
:1010300021F47C1141F4E8114160016841F08071B4
:1010400001600168C1F340610029FAD0416821F0D4
:10105000F0014160416821F4E06141F48061416048
:10106000416821F460514160416821F0030141F081
:1010700002014160416801F00C010829FAD1064CD7
:101080002046FFF7FBFA2046BDE81040FFF742BBC1
:10109000002002400010024000A24A04704770473E
:1010A00038B5064C2068C0F30010002805D000F0C9
:1010B000D5FA206800906068009038BD0044004078
:1010C000FEE700000FB4054B10B503A9044A0298CF
:1010D00000F080F810BC5DF814FB00008D130008D0
:1010E00008000020002809DB00F01F0201219140C8
:1010F0004009800000F1E020C0F80011704700288E
:1011000009DB00F01F02012191404009800000F13D
:10111000E020C0F800117047002809DB00F01F0232
:10112000012191404009800000F1E020C0F8001149
:101130007047000002480068C0F3022070470000BA
:101140000CED00E002480068C0F302207047000088
:101150000CED00E00907090E002804DB00F1E02097
:1011600080F80014704700F00F0000F1E02080F8D4
:10117000141D70470907090E002804DB00F1E02068
:1011800080F80014704700F00F0000F1E02080F8B4
:10119000141D70470907090E002804DB00F1E02048
:1011A00080F80014704700F00F0000F1E02080F894
:1011B000141D704702E008C8121F08C1002AFAD1A6
:1011C00070477047002001E001C1121F002AFBD1C7
:1011D000704700002DE9FF4F8BB09A460F46054639
:1011E000002606E025280BD052460D9990476D1C2D
:1011F000761C28780028F5D10FB03046BDE8F08F76
:101200000024A0460122604900E0044315F8013F94
:10121000203B02FA03F00842F7D128782E2817D194
:1012200015F8010F44F004042A280ED06FF02F02A5
:101230002878A0F1300109290AD808EB880102EBCF
:10124000410100EB01086D1CF2E757F8048B6D1C9F
:10125000287869283ED006DC0028CDD063280BD042
:10126000642804D136E0732810D075284BD052463C
:101270000D999047761C85E017F8040B8DF8000057
:1012800000208DF80100E946012003E057F8049B97
:101290004FF0FF3061074FF0000401D40AE0641CF6
:1012A00044450DDA8442FADB19F804100029F6D11E
:1012B00006E0641C8442FCDB19F804100029F8D114
:1012C000264404E019F8010B52460D999047641E1C
:1012D000F8D257E001CF4FF00A0B002802DA404263
:1012E0002D2102E0210504D52B218DF824100121A8
:1012F00003E0E10705D02021F7E70DF1200908916F
:101300000CE00021F9E701CF4FF00A0BF9E759464D
:10131000FEF72EFF01F1300209F8012D0028F6D169
:10132000ADEB090000F1200B600701D44FF001087C
:10133000D84502DDA8EB0B0000E000208046002429
:1013400006E009A85246005D0D999047641C761C82
:1013500008988442F5DB04E0302052460D9990470E
:10136000761CB8F10001A8F10108F5DC05E019F8D8
:10137000010B52460D999047761CBBF10001ABF171
:10138000010BF4DC6D1C34E70928010004490A68EC
:10139000C2F3C012002AFAD0C2B24A6070470000FD
:1013A0000044004008B53048816941F00101816185
:1013B000816901F001010091C16941F08051C16171
:1013C000C0692A4900F08050009008684FF6FF027B
:1013D0001040274A40F44070104308600868C0F38A
:1013E0000220C0F10702042A00D90422011D0729A6
:1013F00001D2002000E0C01E01219140491E814021
:1014000008011C4981F8140D1B48416821F0E06176
:1014100041F000714160FFF7F3FDFFF75FFAFFF75E
:1014200001FAFFF7E3FAFFF793FCFFF789FBFFF7F9
:101430007DFAFFF731FC11A000F07AF91648016837
:1014400016A0FFF73FFE1B490D2000F06FF9194968
:101450000A2000F06BF91848016841F001010160B1
:1014600000F080F8FEE70000001002400CED00E004
:101470000000FA050FE000E00000014053544D3336
:101480003246313033435438362048656C6C6F2017
:10149000776F726C6421000004000020737973740C
:1014A000656D206672657175656E63793D25644D65
:1014B000487A00000800002000580040016841F40C
:1014C00080710160416911F0010FFBD07047016824
:1014D00041F4007101608169C1F340010029FAD132
:1014E000704708B51143026922F0FF020A43026106
:1014F0004169C1F340010029FAD041690091806936
:10150000009008BD2DE9F041984615460E46044668
:10151000069FFFF7D3FF002241462046FFF7E1FF79
:10152000206920F0FF003843206100200CE0616951
:10153000C1F3C0110029FAD0315C226922F0FF0208
:101540000A432261401C80B2A842F0D36069C0F314
:1015500080000028FAD02046FFF7B9FF0020BDE840
:10156000F081000070B5ADF5087D1C2216A181A8A0
:10157000FEF7DAFD00201B4E009078231C2281A983
:101580003046FFF7BFFF7515FF22294601A8FEF779
:10159000DDFD402478232A4601A930460094FFF758
:1015A000B1FF4FF4FA60FFF72DF9294601A8FEF7C5
:1015B000D4FD78232A4601A930460094FFF7A2FF04
:1015C0000DF5087D70BD0000AED580A81FD300408A
:1015D0008D14200121007F220003DA0281CFD9225D
:1015E000DB40AFA400580040F8B51A4B184C991DC9
:1015F000164E221D5B79154D083628469A5111F872
:10160000013C311D144A5A508A150621FEF75EFE30
:10161000206800906068009004F10C0050E8001F02
:1016200041F0100140E80012002AF7D114F114042F
:1016300054E8000F40F0400044E800010029F7D1D1
:101640002846BDE8F8400621FEF710BE0000024023
:1016500000440040621700080C0000202DE9F0470C
:10166000284C04F10C0000BF50E8001F21F00401D9
:1016700040E80012002AF7D12448DFF88CA0861D2C
:1016800040790AF104014058DFF8848080B2C0F547
:10169000807745461FA0D8F80010FFF713FDDFF84C
:1016A000889009EB070009F1C801286088421ED321
:1016B0001648554640795AF8000016F8011D20F0EA
:1016C00001004AF801004FF4807206215046FEF7EF
:1016D000FDFD0D4932780C31484650503946C8F866
:1016E0000090FEF73AFD06212846FEF7BFFD0C34B8
:1016F00054E8000F40F0040044E800010029F7D14D
:10170000BDE8F08700440040000002406217000876
:10171000000000207265636569766520646174610C
:101720003A25730A000000000C000020FFF72EBECF
:1017300010B5044601E0FFF729FE14F8010B044937
:101740000028F8D1BDE810400A20FFF71FBE0000B6
:1017500008000020081C3044586C80081C30445895
:101760006C80081C3044586C8000000000000000B1
:10177000000102030406070809000000000102033B
:1017800004000000A4170008000000200C00000066
:10179000B4110008B01700080C0000200409000074
:1017A000C41100080C00002000127A0000000000A4
:04000005080000ED02
:00000001FF
