:020000040800F2
:10000000680A0020890100084B0D00089F020008C3
:10001000490D00088F020008DD0E000800000000F6
:10002000000000000000000000000000370E000883
:100030009D020008000000007F0D0008390E000836
:10004000A3010008A3010008A3010008A301000800
:10005000A3010008A3010008A3010008A3010008F0
:10006000A3010008A3010008A3010008A3010008E0
:100070009102000893020008950200089702000808
:10008000990200089B020008A3010008A3010008D0
:10009000A3010008A3010008A3010008A3010008B0
:1000A000A3010008A3010008A3010008A3010008A0
:1000B000A3010008A3010008A3010008A301000890
:1000C000A3010008A3010008A3010008350E0008E1
:1000D000A3010008A3010008DB0E0008A30100082B
:1000E000A3010008A3010008A301000800F002F822
:1000F00000F03AF80AA090E8000C82448344AAF188
:100100000107DA4501D100F02FF8AFF2090EBAE885
:100110000F0013F0010F18BFFB1A43F0010318473B
:10012000E40E0000040F0000103A24BF78C878C124
:10013000FAD8520724BF30C830C144BF04680C60ED
:10014000704700000023002400250026103A28BF35
:1001500078C1FBD8520728BF30C148BF0B60704739
:100160001FB51FBD10B510BD00F058F81146FFF7C0
:10017000F7FF00F0D9FE00F076F803B4FFF7F2FFC6
:1001800003BC00F07DF8000009488047094800479B
:10019000FEE7FEE7FEE7FEE7FEE7FEE7FEE7FEE737
:1001A000FEE7FEE704480549054A064B7047000094
:1001B000D90E0008ED00000868000020680A002041
:1001C00068020020680200204FF0000200B51346CC
:1001D00094469646203922BFA0E80C50A0E80C5067
:1001E000B1F12001BFF4F7AF090728BFA0E80C5018
:1001F00048BF0CC05DF804EB890028BF40F8042B11
:1002000008BF704748BF20F8022B11F0804F18BF7D
:1002100000F8012B7047704770477047754600F033
:100220002BF8AE4605006946534620F00700854688
:1002300018B020B5FFF7B6FFBDE820404FF000062C
:100240004FF000074FF000084FF0000B21F00701BE
:10025000AC46ACE8C009ACE8C009ACE8C009ACE801
:10026000C0098D46704710B50446AFF300802046A4
:10027000BDE81040FFF781BF004870470400002030
:1002800001491820ABBEFEE7260002007047FEE7DA
:100290007047704770477047704770477047FEE778
:1002A000044908B58A6902438A618969014000915D
:1002B00008BD000000100240044908B58A690243E5
:1002C0008A6189690140009108BD00000010024068
:1002D000044B194411F8011C435823F440531343B1
:1002E00043507047D40F0008044B194411F8011C07
:1002F000435823F44053134343507047DB0F000827
:10030000044B194411F8011C435823F44053134380
:1003100043507047E20F0008054B10B5194411F81F
:10032000011C435844F21004A3431343435010BD2F
:10033000D40F0008054B10B5194411F8011C43589F
:1003400044F21004A3431343435010BDDB0F0008D5
:10035000054B10B5194411F8011C435844F2100420
:10036000A3431343435010BDE20F0008044B19444C
:1003700011F8011C435823F0800313434350704786
:10038000D40F0008044B194411F8011C435823F002
:100390008003134343507047DB0F0008044B19449C
:1003A00011F8011C435823F0800313434350704756
:1003B000E20F0008044B194411F8011C435823F4C0
:1003C0004063134343507047D40F0008044B194453
:1003D00011F8011C435823F4406313434350704702
:1003E000DB0F0008044B194411F8011C435823F497
:1003F0004063134343507047E20F0008044B194415
:1004000011F8011C435823F0200313434350704755
:10041000D40F0008044B194411F8011C435823F071
:100420002003134343507047DB0F0008044B19446B
:1004300011F8011C435823F0200313434350704725
:10044000E20F0008044B194411F8011C435823F033
:100450004003134343507047D40F0008044B194422
:1004600011F8011C435823F04003134343507047D5
:10047000DB0F0008044B194411F8011C435823F00A
:100480004003134343507047E20F0008044B1944E4
:1004900011F8011C435823F4407313434350704731
:1004A000D40F0008044B194411F8011C435823F4DD
:1004B0004073134343507047DB0F0008044B19444B
:1004C00011F8011C435823F4407313434350704701
:1004D000E20F0008F0B50A68C2F30F2595FAA5F2FD
:1004E000B2FA82F369E001229A402A4264D0082BD2
:1004F00003D240F201129A4006E0A3F108024FF045
:100500000114944044F080624C68082C0BD10C69B3
:10051000C668170A97FAA7F7B7FA87F726EA1226E6
:10052000BC402643C66092FAA2F700EB1264B7FA09
:1005300087F74FEA870C0F27266807FA0CF7BE43A8
:1005400092FAA2F7D1F804E0B7FA87F7BF000EFAE3
:1005500007FE46EA0E0626604F68012F01D0092FDC
:100560002AD192FAA2F7B7FA87F74FEA870C032746
:1005700007FA0CF7BE4392FAA2F7B7FA87F7D1F859
:1005800008E0BF000EFA07FE92FAA2FC46EA0E0649
:10059000BCFA8CFC4FEA8C0E4FF0040C26600CFA6F
:1005A0000EFC92FAA2F2B2FA82F2CF68920026EA28
:1005B0000C0697403E4326605B1C35FA03F292D14D
:1005C0000020F0BD30B5214C4568B1FBF4F425F0B6
:1005D0003F05254345601E4DAA4207D94FF4967545
:1005E00004FB05F44FF47A75B4FBF5F4056A04F1E5
:1005F000010425F03F0544EA0504046213D96BB1F8
:1006000002EBC20404EB0212B1FBF2F4240508D0A1
:10061000B1FBF2F1194341F400410FE002EB420259
:10062000F2E70121F6E75200B1FBF2F3C3F30B034B
:10063000042B01D2042101E0B1FBF2F1C2694CF6B6
:10064000FF739A430A43C26130BD000040420F006D
:10065000A08601007FB5044600680D4620F0010029
:100660002060684600F02FF8D5E901232046029962
:10067000FFF7A8FF6969E868A26848F2FF339A4368
:1006800008430243A2602868216821F01A0101434F
:100690002160206840F0010020602869216821F471
:1006A00080610143216004B0002070BD4FF47A7175
:1006B000B0FBF1F14FF0E020491E41610021816162
:1006C00005210161704700B5034600F083FB186007
:1006D00000F056FB586000F061FB9860586800F02D
:1006E0006BFBD86000BD10B503680122C3F3801313
:1006F0002BBBD1E900231A43D1E9023423431A4327
:100700000B691A434B691A438B691A43CB691A4325
:100710000B6A1A4303684FF6BF74A3431A4302607F
:1007200042684B6922F0040242EA134242600A6ABC
:10073000B2F5005F02D1898C89B2016100221046B6
:1007400010BD000001490860704700000000002053
:100750002DE9FF410446C0680D460126C0F3403034
:10076000F0BBE9686868E2680843296941F20C63F4
:100770009A4311430843E060A868216921F440517D
:10078000014321616869616921F44071014361613C
:100790006846FFF798FF2448844201D1039806E099
:1007A0002248844202D02248844238D10298B8B10B
:1007B0002A68AAB100EBC00101EB00119200B1FB65
:1007C000F2F36420B3FBF0F3B1FBF2F56FF018071E
:1007D0007B43002605EB8305322303EB051500E080
:1007E0001DE0B1FBF2F7B5FBF0F5B7FBF0F705F054
:1007F000F00505EB0715B1FBF2F7B1FBF2F1B1FB28
:10080000F0F16FF01802514307EB810103EB011186
:10081000B1FBF0F000F00F00284480B2A06004B0FB
:100820003046BDE8F081000000380140004400403F
:10083000004800402C4808B5416941F00101416180
:10084000406900F00100009000F056FB00221146C4
:1008500000F07CFA01460C2000F056FB0C2000F062
:100860003EFB00F049FB0022114600F06FFA014602
:100870000D2000F049FB0D2000F031FB00F03CFBA7
:1008800000220E2100F062FA01460E2000F03CFB2F
:100890000E2000F024FB00F02FFB00220D2100F0C1
:1008A00055FA01460F2000F02FFB0F2000F017FB38
:1008B00000F022FB00220C2100F048FA0146102033
:1008C00000F022FB102000F00AFB00F015FB0022D4
:1008D0000B2100F03BFA0146112000F015FBBDE8AA
:1008E0000840112000F0FBBA00100240F0B585B0BE
:1008F00014216846FFF768FC1020FFF7D1FC202088
:10090000FFF7CEFC0420FFF7CBFC0820FFF7C8FC64
:100910000F480E494FF4005202610E4C102241F272
:1009200010076261012503268DE86200042103910E
:100930006946FFF7CFFD0020CDE90260CDE90075E3
:1009400069462046FFF7C6FD05B0F0BD2000200433
:10095000001001400008014010B58CB01821684615
:10096000FFF732FC142106A8FFF72EFC424CA069C9
:1009700040F00800A061A06906A900F008000B90F3
:100980003E48069009200790032008900420099013
:100990003B48FFF79FFDE06940F48000E061E069BB
:1009A000384C00F480000B90002205212046FFF710
:1009B000B3FC002205212046FFF78AFC0022052116
:1009C0002046FFF71BFD002205212046FFF73AFDD8
:1009D000802205212046FFF7C9FC00220521204680
:1009E000FFF754FD002205212046FFF7E3FC10220B
:1009F00004212046FFF790FC002204212046FFF747
:100A000067FC002204212046FFF7F8FC00220421A5
:100A10002046FFF717FD802204212046FFF7A6FCA1
:100A2000002204212046FFF731FD00220421204648
:100A3000FFF7C0FC144CE06820F00100E060206883
:100A400020F040002060206820F08000206000201E
:100A50000E490290CDE90001039020150490000199
:100A6000059069462046FFF7F5FDE06820F0FE009E
:100A7000E0600CB010BD0000001002400C000C043F
:100A8000000C01400000024000580040A086010018
:100A900030B58FB028216846FFF796FB14210AA8CD
:100AA000FFF792FB4FF48050FFF706FC0420FFF79E
:100AB00003FC4AF2A0000A9009200B9003200024B6
:100AC000CDE90C043F4D0AA92846FFF703FD44F287
:100AD00040000A9004200B900AA92846FFF7FAFC70
:100AE000394D002202212846FFF724FC0022022172
:100AF0002846FFF7F9FB002202212846FFF78AFC6F
:100B0000002202212846FFF7A9FC80220221284664
:100B1000FFF738FC002202212846FFF7C3FC002221
:100B200002212846FFF752FC102203212846FFF736
:100B300001FC002203212846FFF7D6FB00220321F7
:100B40002846FFF767FC002203212846FFF786FCB2
:100B5000802203212846FFF715FC002203212846A6
:100B6000FFF7A0FC002203212846FFF72FFC1748BF
:100B70000068C0F30220011D072901D2002000E017
:100B8000C01E04FA00F10801114981F8000410495F
:100B900008201F39C1F800014FF48270CDE90040F0
:100BA0004FF40070CDE9044002942020CDE9060402
:100BB00003940A20CDE9084069460648FFF793FDF3
:100BC0000FB030BD00080140000002400CED00E015
:100BD00023E000E00030014030B58DB01C216846B4
:100BE000FFF7F2FA142107A8FFF7EEFA5048C1699F
:100BF00041F40031C161C16901F400310C91816996
:100C000041F0040181618069002400F004000C902F
:100C100040F204400790092008900320CDE9090420
:100C2000444D07A92846FFF755FC40F608000790F9
:100C30000420089007A92846FFF74CFC3E4D0022EF
:100C400006212846FFF784FB002206212846FFF7ED
:100C500057FB002206212846FFF7E8FB0022062169
:100C60002846FFF707FC802206212846FFF796FB5F
:100C7000002206212846FFF721FC002206212846F3
:100C8000FFF7B0FB102207212846FFF761FB002287
:100C900007212846FFF734FB002207212846FFF7EB
:100CA000C5FB002207212846FFF7E4FB802207212D
:100CB0002846FFF773FB002207212846FFF7FEFBBB
:100CC000002207212846FFF78DFB1C480068C0F36F
:100CD0000220011D072901D2002000E0C01E04FAF5
:100CE00000F10801164981F8000415494020223915
:100CF000C1F800014FF4E130CDE900040C2002946A
:100D0000CDE90340059406940E4C69462046FFF752
:100D10001FFD206920F490402061606920F02A00C6
:100D20006061E06840F40050E0600DB030BD00004C
:100D30000010024000080140000002400CED00E0FD
:100D400026E000E000440040FEE7FEE730B500F09A
:100D50000703C3F10704042C00D90424181D072835
:100D600001D2002300E0DB1E012505FA04F0401E3D
:100D7000084098409D406D1E1540284330BD704787
:100D800004494968044A01F0F0010909515CC8406E
:100D90007047000000100240E90F0008044949684C
:100DA000044A01F4E06102EB11210978C840704760
:100DB00000100240F90F000804494968044A01F490
:100DC000605102EBD1210978C84070470010024001
:100DD000F90F00080648406810F00C01054805D0DE
:100DE000042903D0082901D100F006B8704700009B
:100DF0000010024000127A000B48416811F4803262
:100E00000A4909D0B2F5803F06D14168084AC1F3CA
:100E10004041491CB2FBF1F14068022200F470101D
:100E200002EB9040484370470010024000093D002B
:100E300000127A007047704770470000234810B5D1
:100E4000016821F0070141F002010160016801F031
:100E500007010229FAD11E48016841F4803101607E
:100E60000168C1F340410029FAD0416821F47C11A6
:100E700041F4E8114160016841F08071016001684E
:100E8000C1F340610029FAD0416821F0F0014160CE
:100E9000416821F4E06141F480614160416821F4DE
:100EA00060514160416821F0030141F0020141605D
:100EB000416801F00C010829FAD1064C2046FFF7E1
:100EC000F5FB2046BDE81040FFF73CBC0020024087
:100ED0000010024000A24A0470477047FEE7002855
:100EE00009DB00F01F02012191404009800000F160
:100EF000E020C0F80011704702480068C0F30220EB
:100F0000704700000CED00E00907090E002804DB23
:100F100000F1E02080F80014704700F00F0000F1AD
:100F2000E02080F8141D7047244808B5816941F01D
:100F300001018161816901F001010091C16941F004
:100F40008051C161C06900F0805000901C48016868
:100F50004FF6FF0211401B4A41F4407111430160FA
:100F60000068C0F30220C0F10702042A00D904225D
:100F7000011D072901D2002000E0C01E012191407F
:100F8000491E81400801104981F8140D0F4841683D
:100F900021F0E06141F000714160FFF74FFFFFF782
:100FA000A5FCFFF747FCFFF7D7FCFFF715FEFFF79F
:100FB0006FFD07494FF400504861FDE70010024003
:100FC0000CED00E00000FA050FE000E00000014039
:100FD00000100140081C3044586C80081C304458F4
:100FE0006C80081C3044586C800000000000000039
:100FF00000010203040607080900000000010203C3
:10100000040000002410000800000020040000007C
:10101000280100082810000804000020640A0000CD
:081020004401000800127A00EF
:04000005080000ED02
:00000001FF
